:10000000C00A00208D0500005FFE01005FFE0100B8
:10001000292402005FFE01005FFE01005FFE010077
:100020005FFE01005FFE01005FFE01005FFE010058
:100030005FFE01005FFE01004DFE01005FFE01005A
:100040005FFE01005FFE01005FFE01005FFE010038
:100050005FFE01005FFE01005FFE01005FFE010028
:100060005FFE01005FFE01005FFE01005FFE010018
:100070005D6C00005FFE01005FFE01005FFE01009D
:100080005FFE01005FFE01005FFE01005FFE0100F8
:100090005FFE0100CD1B00005FFE01005FFE01005E
:1000A0005FFE0100890A0000690A000003030200E4
:1000B0000903020089DC01005FFE01002DE501005B
:1000C00031DD02002DDD0200D1DC010047DD020040
:1000D00035DD0200FDE4010039DD02006DE50100BF
:1000E00041C3010005C50100D9E501005FFE010023
:1000F0005FFE01005FFE01005FFE01005FFE010088
:100100005FFE01005FFE01005FFE01005FFE010077
:100110005FFE01005FFE01005FFE01005FFE010067
:100120005FFE01005FFE01005FFE01005FFE010057
:100130005FFE01005FFE0100099400000B3C02001D
:1001400082B0BFF34F8FBFF36F8F30BF074BD3F831
:10015000F030DB0704D500230193019B052B01DD63
:1001600002B07047019B0133F6E700BF00ED00E0ED
:10017000F0B5114A114C124E00F00105E3695F071A
:1001800013D40DB9334213D103EA00078F4207D1CC
:100190000B4A1A40002A0CBF00206FF00100F0BD8E
:1001A000013AEBD16FF00200F9E74FF0FF30F6E7CC
:1001B0006FF00100F3E700BF809698000000035045
:1001C000020001000B4B70B5D96911F480310DD1DB
:1001D00001244FF48072084E084DF46020462C64D0
:1001E0001A61FFF7C5FF3464EC6070BD6FF0010069
:1001F000FBE700BF00000350001003500020035035
:100200004FF4003238B50F4B0F4C9A6641F67133FC
:100210000122E569E3630D4B0021DA60022360618E
:100220002120236105F48035FFF7A2FF10B92120BA
:10023000FFF79EFF0122064BDA600DB10023E36356
:1002400038BD00BF00900050000003500010035064
:100250000020035070B5134C6061E3695B071ED446
:100260000E4656F8043B8D18A361AE420BD1042311
:10027000002121202361FFF77BFF58B9BDE87040C2
:100280002120FFF775BF08210846FFF771FF10B165
:100290000423236170BD56F8043BA361E5E74FF0EA
:1002A000FF30F7E7000003502DE9F84315464FF4FF
:1002B0000032184B89469A6641F6713203F51C33B9
:1002C000DF69DA630122064603F58053DFF84C80CC
:1002D00007F48037DA6055B9284601220E4BDA6000
:1002E0001FB10022A3F50053DA63BDE8F88306F5D9
:1002F000005404EA0804A41BAC4228BF2C4649461B
:1003000022463046FFF7A6FF0028E6D12644A14446
:100310002D1BE0E7009000500020035000E0FFFF9D
:10032000013800D0FCE770470348044B834202D0F9
:10033000034B03B118477047403200204032002081
:1003400000000000064B0749C91A891048BF013157
:10035000491003D0044B0BB101481847704700BF48
:1003600040320020403200200000000010B5064C52
:10037000237843B9FFF7D8FF044B13B10448AFF318
:1003800000800123237010BDA02B0020000000007E
:100390007048030008B5054B1BB105490548AFF38C
:1003A0000080BDE80840FFF7CDBF00BF000000009F
:1003B000B00D002070480300A3F5803A704700BFDD
:1003C000174B002B08BF134B9D46FFF7F5FF00218D
:1003D0008B460F461348144A121A23F0B3FE0E4BF5
:1003E000002B00D098470D4B002B00D098470020E1
:1003F000002104000D000D48002802D00C48AFF386
:10040000008009F007FE2000290023F000FC09F01D
:100410009FFA00BF0000080000000000000000007C
:10042000C00A0020C00A0020002D002000000000AB
:100430000000000037B504460CF0E4FD00283ED172
:10044000214B2077A361A36843F48013A36022F0BB
:1004500051F8A368A0801B030CD4B0F5FA7F09D92A
:100460002EF093FF0121054608462DF0FFFF284698
:100470002EF086FF20460CF0EDFD08BBE06808B3C7
:100480000FF0C2FA25F053FC0BF00EFF26F0D7FC5C
:1004900025F07BF900220121042025F039FC0023FE
:1004A00001A88DF804300CF09FFF032104200EF00A
:1004B000B3FC0A200BF098FC20461FF0BDFC002086
:1004C00003B030BD0148DBE705040300183200200B
:1004D00008B50449044817F0DBFFBDE8084018F0F0
:1004E00009B800BFB0F7020078F802004FF0805260
:1004F000014B5A60704700BF00ED00E0F8B50E46B2
:100500000546D0B1C9B10E4B0E4F1968386802F0DC
:100510004BFB044678B9062332460B49386802F093
:1005200011FC044638B901232A460849386802F00C
:1005300009FC00B12C702046F8BD2124FBE700BF68
:10054000F02E0020102F00202C0004003C0004009E
:1005500008B503482EF03BFFBDE8084023F006BB7A
:10056000B4FB020001482EF032BF00BFB4FB020012
:100570000348044A0449121A92101FF071BC00BFCC
:100580004001000020030000002D002008B5154B9D
:1005900083F30A8800F030F8FFF7EAFF124B1349A3
:1005A0008B4212D30020124B12498B4218D3FFF713
:1005B00007FF186850F82240586840F8224001327E
:1005C00098688242F5D30C33EAE70022F8E71C680A
:1005D00044F8220001325C68A242F8D30833E4E711
:1005E0000022F8E700000020784803008448030058
:1005F00084480300844803004FF40041134B144A1D
:1006000070B59A60D3F88820124D42F47002C3F896
:100610008820114A05F5005491664FF0FF3222669A
:100620004FF6DF7262660222C3F8D020BFF34F8F0D
:10063000BFF36F8F4FF44036032005F0CDFA03204F
:10064000E66005F0ADFA2E6170BD00BF00ED00E080
:10065000000000000080004400900050014B186032
:10066000704700BFE42E0020054B1860054B1B6F40
:1006700003F00703032B01D12DF084BD704700BFA9
:10068000EC2E00200080005070B5D0B1C9B10E4EE4
:10069000431E013913F8014F2046325D02F0030278
:1006A000012A11F8012F08BF04F12000B55C05F004
:1006B0000305012D08BF2032801A01D1002CE9D199
:1006C00070BD0120FCE700BFF603030007B508205A
:1006D0001FF0DAFC0222064B6846CDE900231FF02A
:1006E00021FC082003B05DF804EB1FF0D8BC00BF6C
:1006F000006A1810BFF34F8F0549064BCA6802F411
:10070000E0621343CB60BFF34F8F00BFFDE700BF34
:1007100000ED00E00400FA0530B5056887B0AB884D
:1007200004461848ADF80C302EF051FE002201218D
:1007300003A81FF0C0FC0DF10B0103A81FF0F3FC90
:100740009DF80B3083F001032B70AB79022B15D190
:100750004FF0FF330022CDE9043304A90A4B009483
:1007600003A800F047F9049B009401330CBF042256
:100770000122054B05A903A800F0D6F8002007B018
:1007800030BD00BFB4FB0200CDFF0100002307B560
:10079000294801932EF01BFE4FF4407301220421DF
:1007A0006846ADF800301FF086FC0122234B05207F
:1007B000C3F8442401A92EF005FE002839D1204BAE
:1007C000D3F8F02042F00102C3F8F020D3F8FC2067
:1007D00042F08072C3F8FC201A4AA3F55D431A6008
:1007E000019B194A03F5D52303F2FC43B3FBF2F353
:1007F000164A013B13610223C2F8F0304FF48073B4
:10080000C2F804334FF06043114AC3F8B02F114AC5
:10081000C3F8802ED3F8002E42F48072C3F8002E65
:10082000FF2283F82020D3F8002E22F48072C3F830
:10083000002E03B05DF804FBB4FB020000D00350AF
:1008400000ED00E0FF030040F8590D00000004E057
:1008500055CEACC5090001004FF06043D3F8802E9F
:1008600030B5D20715D501240B4D8440D5F8FC20B6
:1008700042F08072C5F8FC20D3F8002E2243C3F862
:10088000002E53F82020002AF0D003F8201000207A
:1008900030BD1120FCE700BF00ED00E0F8B50446D4
:1008A0000127124D0CB314F001000BD0002024F0EE
:1008B000010405EBC0021668002EF3D05168C0B2E7
:1008C000B047EFE72246013020284FEA520201D01C
:1008D000D307F8D507FA00F20F2824EA0204E8D972
:1008E000421E05EBC2021038E5E7F8BDC80D002036
:1008F00008B50C482EF06BFD192005F05FF928B102
:10090000192005F069F9192005F04AF91A2005F0B7
:1009100055F928B11A2005F05FF91A2005F040F9C1
:10092000002008BDB4FB02002DE9F0410D469046C1
:100930001F460446002837D0002935D02EF02EFD62
:1009400023780646FF2B05D042462046296804F04E
:1009500057F928602B68013309D12378FF2B06D182
:10096000124B6078D3F8241420F07DFB28602A68AD
:10097000531C13D00E49069B41F8327001EBC201A3
:100980004B602378FF2B04D001239340094AC2F81F
:10099000243430462EF0FDFC002003E030462EF0DB
:1009A000F8FC2D20BDE8F0812220FBE700C00350B9
:1009B000C80D002000D003500F2838B5054613D8C5
:1009C0002EF0ECFC01230024084AAB40C2F820348E
:1009D000C2F82434064B43F8354003EBC5035C6092
:1009E0002EF0D7FC204638BD2120FCE700E0035064
:1009F000C80D00202DE9F0410D4690461F460446E3
:100A000060B359B32EF0CAFC23780646FF2B05D0FD
:100A100042462046296804F079F928602A68531C68
:100A200016D00F4902F10F0341F8337001EBC301F7
:100A3000069B4B602378FF2B05D001231032934097
:100A4000084AC2F8243430462EF0A3FC002003E00C
:100A500030462EF09EFC2D20BDE8F0812220FBE7E1
:100A6000C80D002000D0035008B504F069F8054B0C
:100A700000F0553020F05020C3F82004BDE80840B5
:100A8000FFF70CBF00E0035008B504F059F8054B20
:100A900000F0AA3020F0A020C3F82004BDE80840F0
:100AA000FFF7FCBE00E0035038B5036805461C683C
:100AB000104B9C421AD0104B9C4216D11C2005F0C2
:100AC0005DF8204620F03EFB0C4A04F50053DA6343
:100AD0002B796BB995F87E30002B14BF4FF4FC6373
:100AE0004FF4F86304F58054236438BD1B20E6E717
:100AF000034BF7E70000015A00800650FFFF1F007C
:100B0000E40601002DE9F74F9A460368C7881D687F
:100B100002237E007F2F80F87C300446B3B28846E3
:100B200091464FF0000B06F0FE061AD91B0A03F09F
:100B30000603B34643F0F0061FF00FFB00900D9B39
:100B4000B3B11FF00AFB009BC01A0D9B98420FD354
:100B50002023EB600B23072084F87D3003B0BDE831
:100B6000F08F90F87E30012B08BF46F00106E3E7D6
:100B70002B6CEA6B134013F4C06016D0694905F57D
:100B80000052D16320229905EA6048BF04234FF048
:100B9000000256BF052331202F2084F87C204CBF53
:100BA00084F87D3084F87D30D8E794F87C20023AD0
:100BB0000B2A00F2AD80DFE802F0061133ABAB3D4B
:100BC00047AB4E657A99284620F0ACFA3146284664
:100BD00020F09CFA0323A4F87C30B0E75A0613D522
:100BE000402205F500537F2FDA6307D9594628467E
:100BF00020F08CFA042384F87C30A0E794F87E304F
:100C0000012B45D10C23F6E7180698D5802205F56F
:100C10000053DA63284620F08DFA40F20D23DAE71C
:100C20005906F1D5402205F50053DA6394F87E3079
:100C3000012B2DD1284620F075FA284646F00101F7
:100C400020F064FA0823D6E75A06DDD5402205F5E0
:100C50000053DA63D6E7636F4B4508D25A1C6267CC
:100C600018F80310284620F051FA0B23C3E794F834
:100C70007E30022B01D10723BDE7284620F05AFA27
:100C80000D23B8E7580605D5402205F50053DA6371
:100C90000A23B0E719067FF552AF802205F500530D
:100CA000DA63284620F046FA40F20D3393E79A06BD
:100CB0007FF545AF202205F50053DA63A36F0C9A48
:100CC000934208D25A1C2846A267019304F046F8C2
:100CD000019B0AF80300A36F0C9A2846934202D1A5
:100CE0001FF063FACAE71FF066FA28E7DB057FF515
:100CF00026AF4FF4807305F50055EB6394F87D3013
:100D0000022B0BD0032B0BD0012384F87D3025E779
:100D10004FF400630120A4F87C301FE72D201DE76D
:100D200006201BE7FFFF1F0073B5054600283BD0D8
:100D30000368204A1C68944202D01F4A944235D16D
:100D4000187901A92EF03EFB0646002830D1204636
:100D500004F036F8194A04F50053DA631A642046A1
:100D6000297920F0D5F92B794BB96A791449154BBB
:100D700020469B5C51F82220019904F005F80122DD
:100D800004F580535A600B4B9C420BD00A4B9C429B
:100D900014BF4FF0FF3414460B4B43F82450304639
:100DA00002B070BD0024F7E72226F8E70F26F6E729
:100DB0000126F4E70000015A00800650FFFF1F00E3
:100DC00014F9020010F90200B80E00202DE9F84FC6
:100DD0000C460546002800F09E80002900F09B800C
:100DE0000B68504A1B68934219D04F4A934240F017
:100DF000948001262379012B00F291806379022BE4
:100E000000F28D802EF0CAFA484B074653F8263080
:100E10003BB12EF0BEFA12242046BDE8F88F002622
:100E2000E8E7A04658F8063B98682EF0D0FA40480C
:100E30002EF0CDFA01220A21404603F09BFE01224A
:100E40000A2104F1080003F095FE237913BB4FF04B
:100E50000A084FF0010ADFF8DC904FF0300B42F245
:100E60001001A379E2790BFB03930AFA02F25A50BC
:100E7000642005F00DFF41F21001A379E2790BFB2C
:100E800003930AFA02F264205A5005F001FFB8F108
:100E90000108E2D10322360106F1A04303F57033C5
:100EA000C3F89024E179A27906F1A04642EA014212
:100EB000C3F89424627A237A06F5703643EA024333
:100EC000C6F8983423682B6023792B7163796B7192
:100ED000E3882B8123896B8100F0DEFD002105F181
:100EE0000C0000F061FD014620B138462EF051FAA9
:100EF000192491E705F1100000F056FD044618B1E1
:100F0000E86800F0A3FDF0E72846FFF70DFF38463C
:100F10002EF03FFA80E722247EE70F247CE721248D
:100F20007AE700BF0000015A00800650B80E00208A
:100F3000B4FB020000C00350F8B5036804461D6806
:100F40002E6CEB6B1E40730633D5402205F5005323
:100F5000DA6390F87C30042B13D0082B25D0032BB8
:100F60000CD1C3887E2B0AD8002380F87D3090F8FE
:100F70007E30012B02D00B2384F87C30F8BD042393
:100F8000FAE790F87E30012B03D00B23A0F87C30D9
:100F9000F4E7284620F0C6F894F87F10284641F080
:100FA000010120F0B3F80823E6E7002384F87D3040
:100FB000E4E7370710D5082205F50053DA63284621
:100FC0001A6420F0AFF894F87F102846BDE8F84086
:100FD00041F0010120F09AB816F080071BD0802262
:100FE00005F50053DA6390F87C30082B03D006D85F
:100FF000033B012B05D80A2384F87D3001E00B2B3D
:1010000007D00E2384F87C302846BDE8F84020F055
:1010100091B80323F0E7F1050DD5114A05F500530A
:10102000DA631A641FF0A0F8AF6094F87D30002BEB
:10103000A4D10123BAE716F4C06F9FD0084A05F582
:101040000053DA631A641FF08FF82023B205EB60B7
:1010500001D50423AAE7730590D50523A6E700BFB1
:10106000FFFF1F00F8B5036804461D682E6CEB6B8C
:101070001E4016F004012AD02846424A1FF09BF871
:1010800005F50053DA6305F580505C32026494F88C
:101090007C20052A02D0092A13D0F8BDE3887E2BD4
:1010A00009D8002384F87D3094F87E30012BF4D1E8
:1010B00004238360F1E720230364062384F87C3053
:1010C000EBE704221A64002384F87D30E5E7B706D5
:1010D0002BD5202205F50053DA631A6490F87C3092
:1010E000062B1AD1C38890F880205B00DBB29342B4
:1010F00028460ED11FF05FF894F87E30012B06D100
:10110000042305F58055AB6084F87D10C5E70923FD
:10111000D4E71FF04AF80A23D6E7284620F012F851
:101120002846BDE8F8401FF040B816F0800704D00C
:10113000802305F500552B64AFE7F1030DD5124A66
:1011400005F500531A64DA631FF00EF8AF6094F8E7
:101150007D30002BA1D10123B6E716F4C06F9CD0DF
:10116000094A05F500531A64DA631EF0FDFF2023D7
:10117000B205EB6001D50423A6E773058DD50523E1
:10118000A2E700BF24000100FFFF1F0010B5154BB0
:1011900053F820402379204673B9FFF7CDFE94F829
:1011A0007D1001290BD1D4F88430CBB12046D4F87E
:1011B0008C10BDE810401847FFF754FFEFE779B1F6
:1011C00094F87C300E2B0BD10F2384F87C30D4F8AC
:1011D00088302BB12046D4F88C20BDE81040184749
:1011E00010BD00BFB80E00202DE9F74F0C46174682
:1011F00098468146002800F0D780002A00F0D4806D
:101200000C9B002B00F0D0800579002D40F0CF80A2
:10121000B8F1000F00F0CE800D9B002B00F0CA80CB
:101220007F2900F2C7802EF0B9F8A9F80640019096
:10123000C9E91D55484689F87E50FFF735FCD9F8B5
:101240000020B9F806601468022289F87C201EF09C
:1012500084FF82467600F6B20E9BA3B11EF07DFF9E
:101260000E9BA0EB0A0083420DD82022E2600B22E5
:101270004FF0070B89F87D2001982EF08AF8584628
:1012800003B0BDE8F08F216CE26B114011F4C06B2C
:1012900016D04A4804F50052D0632022E2600022B2
:1012A000890589F87C204BBF042205224FF0310BC1
:1012B0004FF02F0B4CBF89F87D2089F87D20DBE7AC
:1012C00099F87C0002380B2861D8DFE800F006119D
:1012D0006060606060602540604E20461FF022FF25
:1012E000314620461FF012FF0322A9F87C20B3E705
:1012F0004A0605D5402104F50052D1630A2217E0C1
:101300000B06A9D5802104F50052D16320461FF0B9
:1013100011FF40F20D22E8E7D9F8742042450AD2C5
:10132000511CC9F87410B95C20461FF0EFFE0B2267
:1013300089F87C2090E72DB9DDE90C78C9F8745064
:10134000012589E720461FF0F5FE0D22F0E748064B
:10135000D0D40A0680D5802104F50052D1632046FE
:101360001FF0E8FE40F20D32BFE7CB057FF574AF0A
:101370004FF4807104F50054E16399F87D1002295F
:101380000CD003290DD0012189F87D1074E74FF4AA
:1013900000624FF0010BA9F87C206DE74FF02D0B98
:1013A0006AE74FF0060B67E74FF0220B67E74FF055
:1013B000240B64E74FF0210B61E700BFFFFF1F0024
:1013C0001FB50368124902468B421ED011498B4259
:1013D00019D1114B114801930023D168104C8DF89D
:1013E0000830A14204D90F4B99428CBF022301233C
:1013F0008DF80930938801A9ADF80A30D388ADF88B
:101400000C30FFF7E3FC04B010BD074B0748E2E7E0
:101410000000015A00800650A4FC0200500F00207A
:10142000A0860100801A0600B8FC0200C00E002051
:1014300030B50A4685B000B119B96FF0030005B0A8
:1014400030BD394B984223D0384B9842F5D1012317
:1014500090214B4336495818CB58002BEDD0538878
:101460001188013B4908072BE7D801A454F823F061
:1014700095140000BB1400003B140000CF140000C2
:101480003B1400003B1400003B140000EF1400006C
:101490000023DDE71389002BCFD0264CC9B200947E
:1014A00052681EF08EFE2D2838D030D8062835D050
:1014B000072836D00028C2D0BFE71389002BBCD044
:1014C0001C4CC9B2009452681EF0ABFEEBE71389C6
:1014D000002BB2D0148A002CAFD0164DC9B2CDE982
:1014E0000145D468009452681EF0CFFEDBE71389F3
:1014F000002BA2D0148A002C9FD00E4DC9B2CDE98A
:101500000145D46800945268FFF76EFECBE72F28A0
:1015100007D0312891D16FF0020090E74FF0FF30F3
:101520008DE76FF001008AE70000015A0080065045
:10153000C00E0020E0930400144B98421AD008D843
:10154000A3F5004398420CD003F5804398420DD098
:1015500070470F4B984211D003F58043984211D049
:1015600070470C4B0B600C4B136070470B4B0B60C0
:101570000B4BF9E70B4B0B600B4BF5E70B4B0B6081
:101580000B4BF1E70B4B0B600B4BEDE700000550ED
:1015900000400550A0FB02006CFC02009CFB020016
:1015A00040FC020098FB020014FC020094FB0200C5
:1015B000E8FB020090FB0200BCFB020030B50446D1
:1015C0000D468DB002AA01A90068FFF7B5FF01988A
:1015D0002DF0FDFE37482DF0FAFE63792A798DF85B
:1015E0000030003AA37918BF0122042168468DF823
:1015F00001301EF060FD0D22002104A822F0A2FDA2
:1016000002238DF811302C4B217905932B7920681A
:101610005A1E5342534104AA8DF81A301FF0C9FCD8
:101620002268264B9A423DD003F580439A423BD034
:1016300003F580439A4239D003F580439A4237D06C
:101640001F482049A3F5BD33A03B824208BF0B468B
:10165000A0796279217942EA004243F82120029B75
:1016600003A918792DF0AEFE2A68039B2568B3FB09
:10167000F2F3013B2A6BEB612379002405EB431362
:101680002A6B21460F229C660DF1210022F05AFDA3
:101690000123284608A98DF820301FF04DFC204674
:1016A0000DB030BD084BD3E7084BD1E7084BCFE76F
:1016B000084BCDE7B4FB020000010300008004509A
:1016C0000080055000C6035080C50350A0C50350DC
:1016D000C0C50350E0C503500123017902681348D7
:1016E00003FA01F182421AD000F5804082420DD007
:1016F0000F4B9A4215D003F580439A4213D003F55D
:1017000080439A4214BF4FF0FF33042341F27C52CE
:101710005B0103F1A04303F5703399507047002338
:10172000F4E70223F2E70323F0E700BF0080045050
:1017300000000550012301790268134803FA01F102
:1017400082421AD000F5804082420DD00F4B9A425F
:1017500015D003F580439A4213D003F580439A4293
:1017600014BF4FF0FF33042342F27C525B0103F1BC
:10177000A04303F57033995070470023F4E7022328
:10178000F2E70323F0E700BF00800450000005509B
:1017900030B5044685B0FFF7CDFF20681C4B98425A
:1017A0002ED003F5804398422CD003F58043984215
:1017B0002AD003F58043984228D01649164AA3F54B
:1017C000BD33884218BF13460025227943F82250C2
:1017D00003F076F963792A468DF80430A379294617
:1017E00001A88DF805301EF066FC206803AA02A946
:1017F000FFF7A2FE02982DF0EDFD284605B030BDA2
:10180000064BE1E7064BDFE7064BDDE7064BDBE780
:10181000008004500080055060C5035080C503500F
:10182000A0C50350C0C50350E0C503502DE9F04FDB
:101830009A46564B85B01B7806460F461546DDF88E
:101840003C909DF844B0DDF85080002B00F097806C
:10185000072A00F296800E9B002B00F09280B9F1CF
:10186000000F00F08E80129BB3F5006F00F38980AB
:10187000012803D1109B002B00F08380444B03EB25
:1018800005131B7B002B7ED0424C102200216846A2
:1018900022F058FC04EB45141022A7BB3946204621
:1018A00022F050FC43F210036380BBF1000F03D120
:1018B000E37843F00303E370364A0E9B02EB451CCA
:1018C000CCE90193129B6901581E9DF84C30C0F37E
:1018D0000A0003F003039B0643EA001E53582E48F8
:1018E000012E00EA03004EEA0003CDF800A0535099
:1018F00017D0B8F1000F2ED19CF8023068F3041312
:101900008CF8023027E00021204622F01BFC4FF427
:1019100044736380BBF1000FCED1E37843F0300312
:10192000C9E713230CF1100ECCF80C309CE80F0023
:101930008EE80F006FF00301DCF81C20109B61F3B0
:101940009F02012FCCF81C20CCF8143003D1CCF826
:101950001890CCF8043000270D4A290102EB05133A
:1019600042F80180159A28465A60694622469F60CF
:101970005E7302F033FF384605B0BDE8F08F0748CC
:10198000FAE70748F8E70748F6E700BFA12B002071
:10199000E0100020E00F00200F80FFF3028000F035
:1019A000018000F0078000F038B5124B05461B7827
:1019B000DBB1E0B12DF0F2FC0F4A00231146147B9D
:1019C00054B92B6001251A0101EB03131D738C50D0
:1019D0002DF0DFFC204638BD0133082B02F1100248
:1019E000EDD12DF0D6FC0548F5E70548F3E70548AD
:1019F000F1E700BFA12B0020E0100020048000F0E0
:101A0000028000F0018000F038B52DF0C7FC002303
:101A100005460B4A147B6CB90133082B02F1100206
:101A2000F8D102F087FE074B28461C702DF0B1FC60
:101A3000204603E028462DF0ACFC034838BD00BF2B
:101A4000E0100020A12B0020058000F00D4B10B508
:101A50001B78044693B1072812D82DF09FFC0A4B3F
:101A600003EB04131A7B2AB100241C732DF091FCA4
:101A7000204610BD2DF08DFC0448FAE70448F8E735
:101A80000448F6E7A12B0020E0100020068000F0BB
:101A9000028000F0018000F0154B13B51868002398
:101AA00001908DF804302DF079FC124B1C7824B194
:101AB0002DF06FFC104802B010BD01221A702DF0FD
:101AC00068FC0E4B01A81C731C7783F82C4083F82C
:101AD0003C4083F84C4083F85C4083F86C4083F8CA
:101AE0007C4008238DF8073002F048FE2046E2E7EC
:101AF00020F90200A12B0020038000F0E01000205C
:101B0000F8B50D4D2D7885B1072810DC0B4D060179
:101B100005EB0014277B67B1AB510025069BA56040
:101B2000636002F05BFE2846F8BD0548FCE7054807
:101B3000FAE70548F8E700BFA12B0020E0100020DD
:101B4000028000F0018000F0078000F00A4A08B52A
:101B500012785AB107280BD8084A02EB00131B7BF6
:101B600043B1002102F0FCFD002008BD0448FCE761
:101B70000448FAE70448F8E7A12B0020E010002011
:101B8000028000F0018000F0078000F00A4A08B5EA
:101B900012785AB107280BD8084A02EB00131B7BB6
:101BA00043B1012102F0DCFD002008BD0448FCE740
:101BB0000448FAE70448F8E7A12B0020E0100020D1
:101BC000028000F0018000F0078000F0184B2DE942
:101BD000F0411F6D5B6D1F4000D5FEE7012600251B
:101BE000144CDFF85880374218D02368C8F850608A
:101BF000A3B1A168284601316268A1609847637B60
:101C0000012B0BD150B90C4B03EB45131A7B60F33E
:101C100041021A731A7F60F341021A770135082DC9
:101C20004FEA460604F11004DDD1BDE8F08100BFA3
:101C300000000450E0100020E00F002000200450BD
:101C40002DE9F04F144605460E469B46C36B87B000
:101C500001225B6902A960689847EB6B01225B690E
:101C600003A93046984702A81EF0DAFF074648B19C
:101C70000023A37563754FF0FF33A360002007B006
:101C8000BDE8F08F03A81EF0D8FF0123A375237EC3
:101C900004EBC303DE611F846368B3420ED120608E
:101CA00003A81EF0ECFF4FF0FF332075A360237DE7
:101CB000043B022B26D80023A375DFE723681A1AFA
:101CC00053425341A37503A81EF0D9FF237D8342DD
:101CD00018BFA77503A81EF0B4FF074602A81EF0A0
:101CE000B0FF874218BF002303A818BFA3751EF0DA
:101CF000B0FF074602A81EF0ACFF87421CBF0023BE
:101D0000A375D4E703A81EF09CFF80B1EB6B022201
:101D100030465B6904A9984704A81EF0A1FF03465A
:101D2000207D032839D8DFE800F03838040903A8FB
:101D3000F3E7CC22237E04EBC3031A8401F0B8FA44
:101D4000109B187003A8277E1EF06FFF04EBC707D7
:101D500087F82200237E03A804EBC303B3F8209086
:101D600093F822701EF06DFF804603A81EF071FFED
:101D70008246B8F1000F15D0EB6B022230465B694A
:101D800004A9984704A81EF030FF6075637D6BB905
:101D90000023A3754FF0000838E0227E04EBC20256
:101DA0001384CBE703A81EF00BFFEEE794F8168030
:101DB000B8F1000FEED0B9F1000F09D1DFB1012366
:101DC000E375637E002B4FD1012F42D1677614E07B
:101DD0006B6C06EB0A02594286EA020008421CBFFD
:101DE0000021A175591E0A409B1A9945D0D8A37DA0
:101DF000002BE3D1CEE7E37D43B94FF000084B461B
:101E00005246314628461EF049FCA060A27D12B120
:101E100023694B4423611A49237E097899422AD9C0
:101E200001332376BBF1000F27D032B3E37D23B318
:101E3000B8F1000F21D1032F1FD0A1684B1C1CD07B
:101E4000109B2246009328460123FFF7F9FEA07558
:101E500013E095F8343063B9EB6A0133CFD1032F27
:101E6000CDD10123A376C8E7012FCFD0032FC4D152
:101E7000F7E79846C3E70023A375A07DFFE600BF00
:101E800044F902002DE9F04F0E46984600238BB02E
:101E900004464FF0FF31104617468DF8133001F01D
:101EA000F1F9B6F5801F3BD3B21C53D1E56A6B1C28
:101EB00057D12046616A1EF037FB0546B31C18BF98
:101EC0000123DFF810910193636A626C0293236827
:101ED00005A902FB053AE36B05225B69504698476A
:101EE00005A81EF038FF1EF05BFF50461EF063FF92
:101EF0004FF0000B824601464B1C05D0636C81EA13
:101F00000A025B42134232D0294620461EF00CFBE7
:101F1000029BAB424DD0BBF1000F4DD10546D3E73C
:101F2000314605AA04F108001EF0C8FD0146481C10
:101F300010D0384601F0A6F90122394620460DF1AD
:101F400013031EF0FDFB28B19DF8133088F8003014
:101F5000002003E0237C002BA8D12D200BB0BDE88E
:101F6000F08F2368ED1A636CB5FBF3F5A6E74846DE
:101F700001F088F90DF1130349462046019A1EF03D
:101F8000DFFB034690B1B21C03D0D9F80020B24267
:101F90000CD19DF8132003930D4B88F8002049467F
:101FA0001A68384622F0F5F8039B9B46D9F80810CA
:101FB000A2E7BBF1000FD0D0B6F5801FC8D23146E2
:101FC00098F800307A6804F1080001F089F8BFE75A
:101FD00040F90200D41700202DE9F34104461746CA
:101FE00098460E46194D816AE36A8B422AD04B1CF3
:101FF00018E0284601F046F90122294620460DF155
:1020000007031EF09DFB30B14346294620469DF84C
:102010000720B847B0B1A9684A1C05D0012E0AD0E4
:10202000E36A9942E5D10DE0696820461EF009FB9C
:10203000012E0146D8D16B6881EA0302636C5B42D2
:102040001A42D1D002B0BDE8F08100BFA81700202D
:102050002DE9F0474FF0FF334FF6FF72002504469D
:1020600000F10806C0E909238AB0C362056205636E
:1020700030460F461EF0F3FC20461EF0D5F928BB73
:10208000204639461EF0A0FA20461EF0CDF928BBA6
:102090005E200AB0BDE8F087E26B2368606CD2F87E
:1020A00014C000FB0530052205A9E04705A81EF075
:1020B00052FE012840F08380294620461EF055FA42
:1020C000421C294620461EF0CEF90135E3699D42A7
:1020D000E2D320461EF0A8F90028D1D020461EF0F9
:1020E000D3F94FF6FF72636A934200F0B080E26B5F
:1020F000676C2068694607FB030055690522A847FD
:1021000068461EF0FFFD626A2368606C514D00FB5B
:1021100002301EF050FE4FF0FF33A062E3622A4609
:102120006FF00101204605ABFFF7ACFE002850D14F
:10213000AD6829462046E5621EF052F9206320B9B9
:102140002046E16A1EF07DFAE062294620461EF034
:1021500078FA0546A36A9D423DD120461EF0FEF85E
:1021600000278046B946E369994546D3B84563D907
:102170002046616A1EF0D8F90026054604F1400A9F
:10218000BE4212D3626C2368694602FB0539E36BD9
:1021900005225B694846984768461EF0B3FD5346E2
:1021A00002464946E06B1EF008FE294620461EF016
:1021B000BBF90136B0450546E2D1642069E71EF05F
:1021C000F4FD002881D0294620461EF0CEF90246B3
:1021D00077E7A56AADE7294620461EF001F9236B93
:1021E000294603440746236320461EF02AFA054683
:1021F000002FAFD1C4E90B07ACE7636C256805225B
:1022000003FB0955E36B05A95B692846984705A8B8
:102210001EF0A1FD1EF0C4FD58B128461EF0CBFDF6
:10222000014620461EF0DCF8636C143B984208BF60
:10223000013709F1010996E730461EF010FC002332
:1022400020461946044AFFF7C7FE002021E7672011
:102250001FE700BF001800202F0702002DE9F04102
:10226000036B9046826B07689A4288BF8363426C17
:10227000436A90B002FB0377C36B0E46052201A9A7
:102280005B6904463846984701A81EF064FD0128A2
:102290000146307057D0656CE26B2368606AD2F8F3
:1022A00014C005FB0030052206A9E04706A81EF071
:1022B00052FD01284FF0000523D0D4E90A32012154
:1022C0009342CDE90B458DF834800E958DF83C1086
:1022D0002AD1194620461EF0B4F9236B626C1433E0
:1022E0009B1AE06223630C9B53B99DF83C303BB1D1
:1022F000626A616C2368E06B01FB02311EF0E3FC53
:102300000C9DE36B05225B6901A93846984701A83B
:102310001EF021FD30702846236BA26B9A4288BFC5
:10232000A36310B0BDE8F081237C33B91C490BAA2C
:1023300004F1080000F022FFD5E72046194A0BAB54
:10234000FFF74AFECFE7237C23BB2246164904F160
:10235000080000F013FF616A20461EF006F9616A6A
:10236000421C20461EF07FF8054620B9236B626CA4
:102370001344143B23632046A16A1EF062F92368CC
:10238000A062C01A636CB0FBF3F0606220461EF0DE
:102390009BF9B6E700232046044AFFF71DFEDAE763
:1023A000F52A0000712A0000C90702006507020033
:1023B00073B50D46D11E4A421C461B7E4A419A42C5
:1023C00026D129682368994222D3636899421FD88D
:1023D000114E0DF107033246FFF754FDC0B9726884
:1023E0006B689A4214D19DF80730DA1E534253416C
:1023F000227E93420CD1636901336361D4E90323E4
:10240000934205D22968A26842F823100133236160
:10241000012002B070BD00BF001800202DE9F04F70
:102420009A468BB09DF85030DFF850B10293DBF83C
:102430001030804653450D461646C0F09980D1466F
:10244000DBF804300193B9F1000F00F08D80D8F86B
:102450003C3001225B6907A90198984707A81EF044
:10246000ECFBDBF80030984240F0858007A81EF0B6
:10247000F0FB0428074614D107A81EF0F1FB019BCE
:10248000029A04463B44002A3FD1864212D91446A0
:10249000361A404601991EF0D4F8A9EB04090190C0
:1024A000D1E7D8F83C3002225B69019808A9984727
:1024B00008A8E2E7841B544528BF5446032C03EBCD
:1024C0000607AAEB040A4FEA94021CD9D8F83C305C
:1024D000294638465B69984724F0030304F0030655
:1024E0001F441D44002ED4D0D8F83C3001225B6933
:1024F00008A9384698473246284608A9354421F0AD
:1025000048FE0026C5E72646ECE7074600F0030232
:10251000039203442A1804920593049BDD1B059B38
:10252000D81B039B9F420FD1002FB2D0D8F83C306C
:10253000012208A95B6998473A46284608A921F074
:10254000D7FD78B93D44A4E7D8F83C30012208A96A
:102550005B6998470422284608A921F0C9FD08B9FB
:10256000043FDAE74FF0360948460BB0BDE8F08F7C
:102570004FF06309F8E74FF06F09F5E72C180020DA
:102580002DE9F0410F4616469846044688B060B3E0
:1025900090F83450FDB101211DF03BFF00210E9B4E
:1025A000CDE90511CDE902379DF83C30CDF8048026
:1025B0008DF81C30237C04968BB90D4901AA04F1D7
:1025C000080000F0DBFDDDE90553E06B002E08BFDD
:1025D0001D461EF007F9284608B0BDE8F0812046E8
:1025E000044A01ABFFF7F8FCEDE70546F3E700BF4F
:1025F00093070200B12300002DE9F04F99B00F4678
:1026000009920A69416C0E931439D31DB3FBF1F39F
:10261000013302EBC302036B04469342C0F0BC815A
:102620000023DFF844940D93E36A48461946079364
:1026300000F028FED7E9033604930E9B022B4ED1FF
:10264000CC2E40F08A81099B002B42D0394620468F
:102650001EF026F9656C079A6B1E13401490ED1A54
:10266000E36B01225B6916A97868984716A81EF0EB
:10267000E8FA00280CBF04230823782E06933DD9DE
:10268000012300254FF0080A05933B6805990E9831
:10269000C9F80030C9F810601EF0F5FA4FEA9A0345
:1026A00010930023DDF81CB089F814000B930F93EE
:1026B00008930C93616C4A1E0BEA02028B1A002EDF
:1026C00038D05544AB4240D8236B5B1A1344236384
:1026D000ABE0049B1B68149308230693D0E7656C5A
:1026E000079A6B1E1340782EA5EB030516D8FB7DC9
:1026F0007BB9099B002BB3D104230693331DAB4256
:1027000010D9A6B1082DBBD804250023AA460593ED
:10271000BBE7099B002BA3D10823EEE7099B002B05
:102720009ED1D9E7002505954FF0040AADE70425B1
:102730000596F9E75345C7D3B0460BEB0A0303935D
:10274000089B002B18BF032313E0A3EB0A039E4250
:10275000B0460BEB0A0228BF98469E420392EFD97F
:102760000123D9F8102089F81730964271D1C9F8A1
:1027700004B0089399F81730002B6CD099F8182002
:102780000899D31C09EBC3030132C3F804B0A3F8C2
:102790000880997289F81820B8F1000F14D00E9BA8
:1027A000022B5BD10B9B7BB90F9B4344032B0BD9B3
:1027B000E36B01229B69039814A9984705460028FA
:1027C00040F0EC8001230B93089B16A80193059B16
:1027D000009399F814204346396800F009FDE36B33
:1027E00058469B69109A16A99847051E0D9B18BF5D
:1027F0005B4652460D935946434620461DF04EFF18
:10280000236B08F10302A3EB0A0322F003029B1AD5
:10281000C9F808002363002D40F0C0800F9BDDF84D
:102820000CB04344A6EB08060F93594620461DF012
:1028300008FF00258346002E7FF43CAF8A4A3968A2
:10284000936804F10800E36252680E9B00F048FCB4
:1028500084E002238DE7C9F804B09DE7099B002BB3
:1028600030D1049BB8F1030F43440A9327D9DDE923
:102870000301E36B4FEA98029B69984705460028DD
:1028800065D118F003025FD0049B28F003052B44A8
:102890000493039B1D444FF0FF33049915A815932F
:1028A00021F077FCE36B28469B69012215A9984724
:1028B00005460A9B0493002D86D0039B99E7424668
:1028C000039DE8E7039B0A9307F120031193FB7D27
:1028D00078689BB100233D7E0C9AD9B28D4211D904
:1028E000119903F1010C31F83310914226D9069960
:1028F00007EBC303D8690A44104403E00C9B069A13
:1029000013441844E36B01225B6915A99847159B92
:10291000012213930C9B0A9804330C93E36B13A9C5
:102920009B699847039B0A9A43449B1A042B0546CC
:1029300007D978B9134604330A93C8E76346521A95
:10294000CBE70A9B0393B6E70A9B04933CE70A9BF9
:102950000493B2E70A9B0393AFE77026304619B0A1
:10296000BDE8F08F002657E004F108001EF077F86C
:102970003346314620463D4AFFF72EFB3A69616CEB
:10298000D31D1439B3FBF1F3013302EBC302236B04
:102990009342BFF449AE65E01C26DFE73D2D61D1CF
:1029A00004F1080303932368079A606CD61AB6FBF8
:1029B000F0F600FB06301EF0FEF9E16A8246204682
:1029C0001DF03FFEA26A8242D8D0626CD9F808306E
:1029D000511E0B40216BE062891A0B4423630D9951
:1029E0002368CB1AB3FBF2F84645BBD1079BB3EB88
:1029F0000A0611D0E36BB20851469B69984783469B
:102A0000E36A079A3344E362236B03989B1A5344A7
:102A100023631EF024F85E462368616CE06B01FBC3
:102A200008311EF03DF920461DF0FEFC20461DF049
:102A30002BFD626A2368606C00FB02301EF0BBF95C
:102A4000A06220461DF040FE2063002E8CD03A6923
:102A5000616CD31D1439B3FBF1F3013302EBC302F4
:102A60009042A0D22E4679E7D41700202F0702000B
:102A7000032A2DE9F34106460D4617461C4606D1AA
:102A8000237A012B23D0012002B0BDE8F081DFF8CA
:102A90006080096842460DF10703FFF7F3F96060B3
:102AA0000028EDD19DF80720237A032AE8D0D8F832
:102AB00004106A689142E3D1012B2969D4F80CC053
:102AC00007D172690CEB0103934202D92074207C78
:102AD000DAE708316144E1603B460122294630468D
:102AE000FFF78AFD60600028CAD00020CCE700BF55
:102AF000001800202DE9F341089C032A1746266898
:102B000006D1237A012B24D0012002B0BDE8F08148
:102B1000DFF89080304642460DF10703FFF7B2F927
:102B200060600028EDD12568D8F80400A96AD5F8BE
:102B300044C04840CCF100031840227AE1D1012A78
:102B400009D1E268D8F8103013447269934202D96F
:102B50002074207CD9E72868EB6A1B1A081AB3FB9B
:102B6000FCF3B0FBFCF083420BD1706CF36A421EA5
:102B70001340326B121A1344284633631DF061FD73
:102B8000E862D8F81020E36808321344E3600122B9
:102B90003B4604492068FFF72FFD60600028B0D055
:102BA0000020B2E7001800202DE9F0410025634B1A
:102BB0000E46D3F8008004461D6018B9212528462A
:102BC000BDE8F08190F8347007B30A6803689A4250
:102BD00040F0AA804A6843689A4240F0A5808A681B
:102BE00083689A4240F0A080CA68C3689A4240F065
:102BF0009B800A6943699A4240F096808A69C36B58
:102C00009A4240F091804B698361D8E76822394647
:102C1000856B21F097FAD6E90212336804F10800B7
:102C200023607368A5636360336963617369A3613B
:102C30001DF027FFB36904F14000E3639B689847E8
:102C400020B9676C17B16368B3FBF7F794F84330AA
:102C5000E761002BB2D00023656C2366002D6BD09A
:102C6000002F69D02368B3FBF5F205FB1233002B6C
:102C70005CD16768B7FBF5F605FB1676002E55D1DB
:102C800020461DF09DFBA369043303449F424FD3AC
:102C900040F634726369CC3B93424BD8B5F5805F04
:102CA0004AD3032120461DF0B4FBD4E90001E36BB5
:102CB0001B6898470546E36B0220DB6898472DB1F7
:102CC00084F83460E06B1DF08DFD78E741462046C6
:102CD000FFF7BEF96428054604D141462046FFF7B8
:102CE000B7F90546636C143BD5B9226A204602FB4E
:102CF00003F61DF065FBA369043303449E4203D22F
:102D000084F834505A25DDE70123D4E900010C4A48
:102D100084F834301368013313601DF04CFFD1E7A1
:102D2000002384F83430CDE75D2548E7592546E790
:102D30005A2544E75F2542E75B2540E76411002000
:102D4000601100202DE9FF410C4616461F4605463E
:102D500080B390F834307BB3B1F5801F2ED2DFF80A
:102D6000608001211DF055FB2146424628460DF1A9
:102D70000F03FFF787F8044670B99DF80F30012B59
:102D800011D1D8F81030BB4212D102460090314622
:102D90002846FFF743FB0446E86B1DF023FD204661
:102DA00004B0BDE8F081022B14BF2D246024F3E7AA
:102DB0006324F1E72124F2E71124F0E72924EEE768
:102DC0002C1800202DE9F04385B00C4617461E460E
:102DD0000546DDF8308098B390F8343093B3B1F500
:102DE000801F31D2DFF8649001211DF012FB2146D3
:102DF0004A4628460DF10F03FFF744F8044688B908
:102E00009DF80F30012B14D1D9F8102006EB0803E0
:102E10009A4213D300904346324639462846FFF77C
:102E2000FDFA0446E86B1DF0DDFC204605B0BDE868
:102E3000F083022B14BF2D246024F3E76324F1E711
:102E40002124F2E71124F0E72924EEE72C180020D2
:102E50002DE9F3411F4600230C46164605463B600C
:102E600050B390F834304BB3B1F5801F28D2DFF85F
:102E7000548001211DF0CDFA2146424628460DF12D
:102E80000703FEF7FFFF0446A0B99DF80730032BA8
:102E900010D0022B0AD10123336004233B60E86B7E
:102EA0001DF0A0FC204602B0BDE8F081D8F810303B
:102EB0003060F3E72D24F2E72124F3E71124F1E752
:102EC0002924EFE72C18002073B5044641691DF052
:102ED0005CFA626E236B024493422CBF00220122F3
:102EE000834294BF00231B1A207C84F85020636522
:102EF00084F85800A8B100230B4E1A461946204604
:102F000000961DF09AFD002305461A4619462046F4
:102F100000961DF09BFDE3682844984294BF002072
:102F2000C01AE06502B070BDFFFF0F002DE9F34746
:102F30001E4643690446B342884617469DF82890CA
:102F40004FD300258DF80750204661691DF01DFA0A
:102F5000D4F830A082450AD2236AB5EB430F06D2DB
:102F6000002220460DF10701FFF778F9B8B39DF86C
:102F70000730012B05D1002220460DF10701FFF794
:102F80006DF9B9F1030F06D0314620461DF0FDF969
:102F9000256B854227D3154D4FF0FF31284600F0B1
:102FA00071F94B46294600222046C5E90376C5F84B
:102FB0000080FFF721FB236E054663B12046FFF733
:102FC00083FF94F8503013B994F858301BB1236E36
:102FD00004F150009847284602B0BDE8F08701355B
:102FE000B2E76225F7E71C25F5E700BF00180020CF
:102FF0002DE9FF410F4690461E46054698B390F8CE
:10300000343093B3B1F5801F31D21A4C02211DF038
:1030100000FA2246394628460DF10F03FEF732FF2B
:10302000024678B10123424600933946334628468A
:10303000FFF77CFF0446E86B1DF0D4FB204604B08C
:10304000BDE8F0819DF80F30012BEBD12169B14231
:10305000E8D10093414633462846FFF7DFF904469E
:103060000028DFD1E7E72124E8E71124E6E7292457
:10307000E4E700BF2C18002030B50C46054685B0AB
:1030800028B390F8343023B3B1F5801F23D2022146
:103090001DF0BFF90DF10F03214628460F4AFEF738
:1030A000F1FE034688B99DF80F20032A0DD00322B4
:1030B0002146009202462846FFF738FF0446E86B97
:1030C0001DF090FB204605B030BD2D24F7E72124EC
:1030D000F8E71124F6E72924F4E700BF2C180020B4
:1030E0002DE9F043466886B3056898464FF0000C1A
:1030F000A946AE4655F83C400CF1010CC4F3130749
:10310000013401D0B94217D066450EF1080EF1D155
:103110002F46002403E0A64207F1080712D055F815
:10312000343001340133F6D1C1F3130141EA0851BF
:10313000C7E90012BDE8F08341EA0851CEE9001268
:10314000BDE8F083B8F1030F03D101230372BDE89A
:10315000F083002303E09E4209F10809F5D055F8F9
:1031600033400133C4F30754032CF4D1C1F31303E8
:1031700043EA0853C9E90032BDE8F0832DE9F04184
:103180000646406882B0C0B10F46904600243368BE
:1031900053F8345003EBC403C5F30752C5F31301CE
:1031A000013504F1010406D05B683046CDF800809B
:1031B000B84710B170688442E9D302B0BDE8F0812D
:1031C000024B1968024B1868FFF7EEBCF02E002086
:1031D000102F002008B52CF0D8F8014B186008BD5E
:1031E00058180020014B18682CF0CAB85818002055
:1031F00073B504462248012A00EAC1119DF818500F
:1032000023F07C4007D9961E012E28D9073303F0FE
:103210007F03194308E09DF81C300A43DB0603F0E6
:10322000C053134343F060410023C4E900108DF8FC
:103230000730B5B1202221460DF107001DF0D7FD62
:103240001A220DF10700211D1DF0D1FD0820636831
:103250009DF8072043EA8263636002B070BD1143AA
:10326000E2E71B220DF1070021461DF0C0FD236897
:103270009DF80720042043EAC2632360EDE700BF06
:1032800080FFFF0738B5094B0D461A680021044638
:1032900020F058FF00234FF0FF322383C4E90025BC
:1032A0002361A260E382A37638BD00BF40F902002B
:1032B0000138C0B205289ABF014B185C0120704745
:1032C00045F902002DE9F0410746154600240E4657
:1032D000596888B0490A012922464FEA510104F190
:1032E0000104F8D8DC78997824031B88C90201F41A
:1032F000006104F480540C43C3F30A0352032344D3
:1033000092B24FF000089C18274B6FEA04440393D5
:1033100025F07843ED4302A90DF107001B2202932B
:103320008DF807801DF063FD9DF80720029B02A920
:1033300043EAC2630DF107001B2225F07845049390
:1033400002958DF807801DF052FD9DF80720029B25
:103350006FEA144443EAC26305934FF0FF330794C6
:10336000069307A9BB69012206F110009847BB69C3
:1033700005A90446012206F108009847BB694045AB
:1033800018BF044604A90122301D98470122404578
:1033900018BF0446BB69304603A99847404508BF9B
:1033A000204608B0BDE8F08101009AB2044BD3F882
:1033B0008420D206FBD4D3F88400C0F38110704778
:1033C0000040005038B5184B0546D3F824010C4690
:1033D00000F00700062823D8DFE800F0040A121ADC
:1033E0001E0E1600012305B1286004B1236038BD0C
:1033F0002AF0A2FE0523F6E72AF09EFE0623F2E756
:103400002AF0DAFE0323EEE72AF0D6FE0423EAE7E9
:103410002AF0CEFE0223E6E72AF0D4FE0723E2E7F5
:1034200000231846DFE700BF0080005038B5104B7E
:103430000546D3F800310C4603F00303022B0BD0F2
:10344000032B0DD0012B0FD12AF0B6FE032305B1BB
:10345000286004B1236038BD2AF0B8FE0823F6E7DF
:103460002AF0B0FE0723F2E701230020EFE700BFB8
:103470000080005038B5104B0546D3F820310C467B
:1034800003F00303022B0BD0032B0DD0012B0FD124
:103490002AF052FE052305B1286004B1236038BD2F
:1034A0002AF08AFE0323F6E72AF082FE0223F2E7DF
:1034B00001230020EFE700BF0080005038B5104B1B
:1034C0000546D3F840310C4603F00303022B0BD022
:1034D000032B0DD0012B0FD12BF04CFF092305B18D
:1034E000286004B1236038BD2AF070FE0823F6E797
:1034F0002BF043FF0B23F2E701230020EFE700BF8F
:103500000080005038B5104B0546D3F860310C46AA
:1035100003F00303022B0BD0032B0DD0012B0FD193
:103520002BF028FF092305B1286004B1236038BDC2
:103530002AF04CFE0823F6E72BF01FFF0B23F2E7DF
:1035400001230020EFE700BF008000503C4B984271
:1035500072D02AD83B4B98426BD014D83A4B984241
:1035600064D00AD8394B984243D0394B984240D066
:10357000384B98423DD000207047374B9842FAD1E3
:10358000364B586E7047364B984235D003F537139B
:1035900003F5D863984232D0A3F5B703A3F5586377
:1035A0009842E8D12D4B186F70472E4B984231D07E
:1035B0000FD82D4B984225D02C4B984226D0A3F5FE
:1035C0003703A3F5D8539842D5D1244BD3F88000C4
:1035D0007047274B984221D003F5740303F510532D
:1035E00098421FD0234B9842C5D11C4BD3F8900072
:1035F00070471A4B986D7047184B586F7047174BB0
:10360000986F7047154BD3F884007047134BD3F86D
:1036100088007047114BD3F88C0070470F4BD3F8DC
:10362000940070470D4BD3F8980070470B4BD86D42
:1036300070470A4B986E7047084BD86F704700BFB1
:10364000002D310180969800404B4C0080841E0074
:1036500000093D0040420F00C0CF6A000080E00F2B
:103660000024F400006CDC020048E80180D543022D
:103670000090D003007E560373B50D4600210E4B1B
:103680000191D3F88041064604F00304012C09D0CF
:10369000022C0CD00C460EB1019B336005B12C609E
:1036A00002B070BD01A8FFF7E5FE0F24F3E72AF092
:1036B0007FFD0190EFE700BF0080005038B5104B50
:1036C0000546D3F840320C4603F00303022B0BD01F
:1036D000032B0DD0012B0FD12BF04CFE092305B18C
:1036E000286004B1236038BD2AF070FD0823F6E796
:1036F0002BF043FE0B23F2E700231846EFE700BF51
:103700000080005038B5144B0546D3F800020C4633
:1037100000F0070004281BD8DFE800F003090D11B2
:103720001500012305B1286004B1236038BD2BF0DA
:1037300021FE0923F6E72AF049FD0823F2E72BF0E2
:103740001CFE0B23EEE72AF01DFD0E23800AE9E79D
:1037500000231846E6E700BF0080005010B40D4C6F
:103760000B46D4F8204204F00304012C0AD0022CAA
:103770000CD008B1002101600BB100221A605DF885
:10378000044B70475DF8044BFFF774BE5DF8044BC3
:10379000FFF794BE00800050B0F5207F1FD009D8FD
:1037A000B0F5007F15D003D868B1B0F5C07F0AD05E
:1037B00000200CE0B0F5607FFAD10B4BD3F880000D
:1037C000C0F3011003E0084B186FC0F30330013061
:1037D0007047054BD3F89000C0F30460F7E7024B45
:1037E000186FC0F38020F2E7008000504FF40032E1
:1037F0000E4B014610B500209A66FFF7CDFF4843F7
:1038000041F671320A490B4B884294BF00200120D7
:10381000DC69DA639A6822F4401242EA00529A6044
:10382000E20344BF0022DA6310BD00BF00900050E5
:10383000005A620200000350420910B50FD0012A5D
:103840000FD00A4B0A4C022A18BF234600F01F0073
:1038500049B103F58053012282401A6010BD13461E
:10386000F4E7044BF2E703F50053F4E768800050F7
:1038700060820050648000501FB50021B0F5807F49
:103880000446019100F0068100F29D80612800F25B
:1038900095801F2805D8002840F092802AF072FCFD
:1038A000DCE0A0F12004412C00F28A8001A353F84F
:1038B00024F000BF9D380000613A00009D380000F0
:1038C000613A0000813A0000813A0000813A00002C
:1038D000813A0000613A0000613A00003B3A000082
:1038E000F5390000B73A0000C13A0000F539000090
:1038F000613A0000613A0000613A0000C1390000FD
:10390000C1390000C1390000C1390000C1390000CF
:10391000C13900008B3A0000173A0000613A0000FC
:10392000613A0000613A0000D53A0000CB3A00004D
:10393000613A0000C1390000C1390000C1390000FE
:10394000C1390000C1390000C1390000C13900008F
:10395000C1390000C1390000C1390000C13900007F
:10396000C1390000C13900009D380000C139000094
:103970009D3800009D3800009D380000813A00000D
:10398000C1390000C1390000C1390000C13900004F
:10399000C1390000C1390000C1390000C13900003F
:1039A000C1390000C1390000C1390000C13900002F
:1039B000C13900009D3800009D38000080284BD0A0
:1039C000019804B010BDB0F5A06F5ED028D8B0F556
:1039D000607F50D019D8B0F5007F4CD004D8B0F536
:1039E000C07F3FF45BAFEBE7B0F5207F38D0B0F598
:1039F000407FE5D12AF0C6FB02464FF42070FFF766
:103A0000CBFEB2FBF0F2520833E0B0F5806F37D056
:103A1000B0F5906FD4D1002101A8FFF7D3FCCFE718
:103A2000B0F5E06F51D00DD8B0F5C06F43D0B0F510
:103A3000D06F45D0B0F5B06FC2D1002101A8FFF71B
:103A40001BFEBDE7B0F5F06F44D0B0F5086FB7D1FD
:103A500001A8FFF7EBFCB3E72AF074FB0190AFE796
:103A60002AF090FB02464FF42070FFF795FEB2FB60
:103A7000F0F20192A4E72AF065FB02462046F4E743
:103A8000002101A8FFF7F6FC9AE7002101A8FFF743
:103A900065FE95E74FF0E02302911B695B0705D5B2
:103AA0002AF070FB0290029B019389E703A902A808
:103AB000FFF704FDF7E7002101A8FFF7FFFC7FE710
:103AC000002101A8FFF71EFE7AE7002101A8FFF7F9
:103AD000F5FD75E7002101A8FFF714FD70E700BFB1
:103AE00008B58020FFF7C8FE034B98429EBF4FF4F5
:103AF0008032024B1A6708BD005A620200A00050D3
:103B00001FB503460020B3F5807F01906FD027D802
:103B1000382B00F082800BD8243B092B0FD8092BBF
:103B20000DD8DFE803F05F5F5F5F0C0C5A0C367551
:103B3000522B57D007D83D2B3AD03E2B72D001984C
:103B400005B05DF804FB802BF9D1394B1B6F03F0F6
:103B50000703013B032BF2D8DFE803F03D36393B86
:103B6000B3F5D06F54D019D8B3F5A06F55D00AD89B
:103B7000B3F5806F36D0B3F5906FE0D1002001A986
:103B8000FFF720FCDBE7B3F5B06F26D0B3F5C06FCD
:103B9000D5D1002001A9FFF791FCD0E7B3F5006F64
:103BA000ECD00AD8B3F5E06F3CD0B3F5F06FC6D1D6
:103BB000002001A9FFF7A6FCC1E7B3F5086FBED14D
:103BC00001A9FFF733FCBAE705230193B7E7032305
:103BD000FBE70723F9E70223F7E7002001A9FFF736
:103BE0004BFDACE7002001A9FFF744FCA7E74FF02D
:103BF000E02302901B695B0705D52AF0C3FA0C236A
:103C00000393039BE1E703A902A8FFF757FCF8E73A
:103C1000002001A9FFF776FD91E7002001A9FFF739
:103C20009DFD8CE7002001A9FFF748FD87E700BF55
:103C3000008000504FF48032074B0849586E03F55E
:103C400080535A660B6A23F001030B62C3035CBF07
:103C5000034B5A66704700BF0080005000C00750F9
:103C600000A0005008B5FFF74BFF082811D0093815
:103C7000012802D94FF6FF7008BD4FF40012064B21
:103C80005A6603F5D8335B6ADB07F3D54FF4FA7055
:103C9000F2E7024B1888EFE70090005082310020D5
:103CA00008B5FFF72DFF03280ABF024B4FF6FF7040
:103CB000188808BD80310020F8B504468020FFF741
:103CC0001FFF032800F087804FF40022424B02219F
:103CD0005A6645F60E03414AC2F88030404B99625D
:103CE000012103F580539962936DD903FCD4D4E983
:103CF00000131B0543EA0163E17B94F820500B435A
:103D0000217BE77E43EA0143617B6D0143EA013396
:103D1000A17B43EA811313619169D4E904031B0673
:103D200043EA806301F000410B43A17E94F8230035
:103D30000B43217E43EA0143617E43EA0123936101
:103D4000136AE66923F00D0394F8221043EA87030F
:103D5000002E2DD11362966A94F8213045EA0313A0
:103D600026F033052B4343F0010393621D4D1B4B9B
:103D70009A6D35EA0202FBD10222194DAA621A6538
:103D80009A6D5200FCD41A69A56822F4700242EAC6
:103D900005521A614FF00042114B9A6119B9022283
:103DA00003F580539A6278B901220F4B9A620BE0B7
:103DB000334343F008031362936A23F0330303434E
:103DC0002B4343EA4103936294F824301BB1034B25
:103DD000064AC3F88020F8BD0090005000C0005093
:103DE00000D000500300014000E00050F1A7FFFFA9
:103DF000014B93F900007047A32B0020F0B5D0E9E8
:103E000001434FF480061A4A4178057856664FF40C
:103E1000D156022702F5B8325662164E4F29776006
:103E20004FF0010728BF4F2106F5805677601669CD
:103E3000F603FCD441EA052151611B01417B43EAB1
:103E400004230B43017B43EA41039360C37B817BE3
:103E50001B0143EA4113417C0B43017C43EA4103CC
:103E60005360837C13B16FF4D1535362F0BD00BF34
:103E70000090005000100250014B1880704700BFA6
:103E800082310020014B1880704700BF8031002034
:103E90004FF4001208B5184B5A660223174A5360B4
:103EA000936813F48033FBD1012822D12AF084F9DE
:103EB000134B984215D003F5122303F5F86398428B
:103EC00013D0104B00EB8002400AB3FBF0F3520A10
:103ED0000A49CA620B6301234B620022074B5A60F6
:103EE00008BD45F67A13084AF2E745F61A03074A71
:103EF000EEE75362F1E700BF00900050004002502F
:103F000000F0490264666666D8B80500BBCF0500BC
:103F1000B0F5207F10B50C4642D008D8B0F5007F30
:103F200033D003D888B1B0F5C07F0ED010BDB0F546
:103F3000607FFBD11F4A4C1ED2F8803023F0300343
:103F400043EA0413C2F88030F0E71CF06EFF1CF067
:103F50007AFF4FF48031184B164A1967136F013CF2
:103F600023F4704343EA043313672AF00BF9044641
:103F7000FFF71CFAC0F1020120461CF05EFF00F0C2
:103F800035F8BDE81040FFF7ABBD0A4A4C1ED2F829
:103F9000903023F0F85343EA0463C2F89030C5E749
:103FA000044A4C1E136F23F4806343EA842313678F
:103FB000BCE700BF008000500090005008B5012110
:103FC000022000F055F94FF42070FFF7E5FB054B98
:103FD00018701CF02AFF1CF036FF4FF48032024BA1
:103FE0001A6708BDA22B00200090005008B54FF4BE
:103FF000C070FFF741FCBDE808400449884294BF07
:10400000012102214FF42070FFF782BF80F0FA02F5
:1040100038B504462AF0B6F80546FFF7C7F9C0F1EF
:10402000020128461CF009FF0121002000F060F980
:104030002CB1FFF7DBFFBDE83840FFF751BD034B64
:104040004FF420701978FFF763FFF4E7A22B0020EC
:104050004FF4C02270B50546FFF778FA314B04469D
:104060005A6603F598335A68012A04D12E494A60EA
:104070009A699207FCD18020FFF742FD052807D1FD
:104080001CF0D3FE1CF0DFFE4FF48032254B1A6784
:10409000264B24F040749D4230D0254B9D4230D0B9
:1040A0002AF04AF88542064603D90121284600F045
:1040B0001FF9204BDA6812F0060FFBD199689C605B
:1040C0009A68624012F4F81F1ED12846FCF7C6FA1F
:1040D0008020FFF715FD05280DD12AF053F804467E
:1040E000FFF764F9C0F1020120461CF0A6FEFFF7BD
:1040F0007DFFFFF7F5FCAE420CD270BD44F00074BA
:10410000CEE744F08074CBE780209960FFF7F8FC9D
:10411000052805D0BDE870400121002000F0E8B876
:104120003546DAE70090005000E0015040420F00B1
:1041300080841E000000015010B5224B70B94FF46E
:104140000031214A1860516602F598325268012AFE
:1041500003D11E4AD2F800211A6010BD1B68002B43
:10416000FBD01B4A5268012AF7D0184A8020C2F8B7
:104170000031FFF7C5FC05281FD14FF4C070FFF7D1
:104180000BFB0128044604D102214FF4C070FFF755
:10419000BFFE07220F4B1A610122A3F580535A601C
:1041A0000B4A1369DB07FCD5012CD6D12146BDE8AB
:1041B00010404FF4C070FFF7ABBE0122064B5A60AF
:1041C000CBE700BF5C18002000900050008000503A
:1041D00000C0015000E0015000D00150044A417875
:1041E000536F23F4407343EA01235367704700BFC2
:1041F0000040005010B5044610B10020FFF79CFFAE
:10420000124A136943F0040313612AF0E9FB1CF01E
:104210001FFE0F4B5B6E5B0142BF0E4B0E4AC3F895
:1042200020242BF0B2F82BF0BBFA2BF0A9F81CF0ED
:1042300010FE02F043FC1CB9BDE8104029F0A2BFFB
:104240000120BDE81040FFF777BF00BF00ED00E0A0
:104250000080005000E003500000FF0F034A017986
:10426000D36E23F030030B43D366704700400050F9
:10427000F8B504461C4BD3F88420D106FBD4D3F800
:104280008430C3F381139C422CD029F05BFF012CB6
:10429000064602D121461CF0D0FD2BF076F84FF0F7
:1042A0000072124B07465A6620461CF0D9FD4FF4A7
:1042B00080630D4D621E93402B676B6E9A0103D491
:1042C000D5F884309B060AD538462BF059F8022CD5
:1042D00008D13046BDE8F84000211CF0AEBDD5F84D
:1042E0008430EAE7F8BD00BF004000500060005095
:1042F00010B50C4608B929F025FF074B21461B785D
:104300003BB1064B984204D80120BDE81040FFF7AE
:10431000AFBF0220F9E700BFA42B0020005A6202C1
:104320000278034B012100201A70FFF7E1BF00BFA4
:10433000A42B00204FF0004238B5264B26495A6680
:1043400001224A604AF6CD3103F50B235D6C1964F6
:10435000154030BB9968C9070BD4002401221F4BBC
:104360005A6015B11E4B1F4A1A6428F02BFF2046D5
:1043700038BD1A498A601C4AD96ACC0705D49042D4
:1043800001D10724EAE70130F6E79042E5D1F8E7EA
:104390000132DC6A14F0080406D08A42F8D10724FE
:1043A000DFE700221049F4E78A42F8D020220B4BC5
:1043B0000B495A620122A3F580539A6023460A4AA8
:1043C000486A800603D49342E9D00133F8E7934268
:1043D000C7D1E4E700900050005009500060095038
:1043E000004009503254FFFF40420F004FF000429E
:1043F00038B5174B174C5A66012203F50C235A6047
:104400004AF6CD33656C2364437893401343124AD4
:10441000D363C3788178A2689B0043EA011322F03A
:1044200074021343A3600279837943EA0223236170
:104430004279C37943EA022363610078FFF77AFF88
:10444000EB0744BF054B236428F0BCFE012038BDB8
:104450000090005000400950004000503254FFFFCF
:1044600010B504461CF001FD002341F20202084988
:10447000E360A360226104F50052E3616361A3611C
:1044800023626362E362A3645164A36210BD00BF50
:104490007F370C0138B50446154639B918488442AF
:1044A00014BF08463820FFF7E7F901466368A368A0
:1044B00003F0E003402B1AD003D8D3B1202B1AD03D
:1044C00038BD602B19D0802BFAD101236B434901F1
:1044D000B1FBF3F10B4A2039204602EAC102012167
:1044E0001CF0BFFCA262BDE838401CF0BABC062339
:1044F000ECE71023EAE70823E8E70423E6E700BF38
:104500000000035AF8FF7F00F8B5436804460D46E3
:1045100016461BB140F2FF711CF0A3FC2046FFF7CA
:104520009FFFE9896B7B22690B43298A22F44C5255
:104530000B4322F0030213432361A268297E2B7BE5
:1045400022F080420B4322F0E20213436A6904F531
:1045500080511343AA68A360EB69002A34D1A06894
:1045600040F00040A060002B33D15EB396F82030BD
:10457000DBB101238B614B60204629781CF092FC53
:10458000236CDB4313F4405FFAD1F8BD96F820307A
:104590005BB101238B614B6020466968FFF77AFFAE
:1045A000EAE796F82030002B78D196F8223060693F
:1045B00096F8216020F009003343034343F00103E0
:1045C0004B6161E00123D6E71BB9002EDED1012348
:1045D000E1E7987A1F7A4004D4F808C040EA87508F
:1045E000304F0CEA070738439F8807F4C047384329
:1045F0005F7840EA87005F7B40EAC7009F7B40EA24
:1046000007109F7840EA8720A060D4F80CC0D3E957
:10461000040738432CF4D81727F4C06738439F7930
:1046200040EA8720DF7940EA4720E06018780128D7
:1046300005D1E06840F00400E0601B4806E0032874
:1046400028D1E06840F00400E06018480127C0F875
:10465000C070587A086218B1E06840F40060E06009
:10466000D87A48B1E068124F40F40040E060187B0F
:1046700000F00F00C7F88000E069DB7B20F003004A
:104680000343E361002E8CD101234B60002A3FF4E9
:1046900073AF81E702380128D7D9CEE701238B61B8
:1046A000F2E700BFE39BBDFF00E4035000D40350DA
:1046B00000900350F8B504460D461F4616464AB111
:1046C00001238B403021184A01FB0022F7B141F24F
:1046D0001001535004EB4403072D4FF00F014FEA34
:1046E000031316D8A80006FA00F281400F481844B8
:1046F0001CF004FC4EB9012330210B4AAB4001FBF6
:10470000042277B141F210015350F8BD42F210017A
:10471000DFE7A5F10800800006FA00F281400448B6
:10472000E5E742F21001EFE700C0035004C0035078
:104730000CC0035010B5152001F020FA0024FF2210
:10474000064B21465C6520209A625C60FFF774F896
:104750002146BDE810402120FFF76EB8000004504C
:10476000044A054B002908BF1346012282401A6003
:10477000704700BF401004504020045010B5012184
:1047800004462020FFF758F801212120FFF754F8B4
:104790000122114B15205A60227812069A60617826
:1047A000A27842EA01429A61FF229A6200229A6349
:1047B0001A644FF000425A654FF0FF3203F5005380
:1047C0001A6501F009FA1520E1781DF07BF8BDE8C3
:1047D0001040152001F0E4B900000450F8B501259F
:1047E000C3B21E4FD1F800C09D408E7ACB7A0C46E2
:1047F000097B3D6507F5005747F820C04FF0300CA6
:104800000CFB00F01B05677B00F1A04043EA064368
:1048100000F5802043EA415322F003020766C36596
:1048200002672AF0BBFD0E4B227A5D6502B11D6462
:10483000627A02B19D632279A37943EA0243074A6F
:1048400093616179E37943EA014305498B61054B43
:1048500055639D64BDE8F8402AF09BBD00200450DC
:10486000001004500000045010B50124C0B2844070
:104870002AF094FD044B5A6D22EA04025A659C62A8
:10488000BDE810402AF085BD0000045010B5012499
:10489000C0B284402AF082FD074BDA6A224208D176
:1048A0005B6B9C430CBF012400242AF072FD204660
:1048B00010BD0024F9E700BF0000045070B50546A4
:1048C0002AF06CFD3022084B5E6B02FB05335C6EF8
:1048D0002AF05FFD0123EDB2AB4033420ABFC4F3BF
:1048E0000A100020013070BD000004504FF4003267
:1048F000054B9A6641F6713203F51C33DA630122E7
:1049000003F50053DA607047009000500B4B012113
:104910009B6E9B035EBF4FF40032094B9A6641F6D3
:104920007132084BDA63084AD1600022DA634FF42F
:104930000032A3F518339A66704700BF008000501C
:10494000009000500000035000200350CB784A78BC
:1049500010B55B010C7843EA82030A79234343EAEA
:1049600002130C22424302F1B0421363012C02BF36
:104970008A78024B43F8202010BD00BFE880035026
:1049800008B54FF0B0435A686AB958B15B680BB1CB
:104990001CF0C3FA01210D4B59601CF0BEFA4FF018
:1049A000B043D96008BD5B680BB11CF0B6FA0028B3
:1049B000F0D11CF0B2FA4FF0B0430222DA601CF0E2
:1049C000ACFA0122024B5A60ECE700BF001000581D
:1049D000002000584FF0B0414B6810B50BB11CF0EF
:1049E0009CFA01220B4BC4785A608378934043EAC7
:1049F000840344782343047943EA0413447943EA63
:104A0000C4038B60044B5A600378C3F10203CB608C
:104A100010BD00BF00200058001000584FF4803235
:104A2000064B5A6603F5E6235B69C3F38512827071
:104A300003F03F021B0B4270037070470090005060
:104A4000014B986CD96C70470080E00F0120034B3C
:104A50009B680A3303F01F03984070470080E00F03
:104A600030B5154CA04219D004F58044A04217D0AF
:104A700004F58044A04215D004F58044A04213D030
:104A800004F58044A04208D1042006250B4C6BB1EC
:104A900005FB001004EB8004E26030BD0020F4E769
:104AA0000120F2E70220F0E70320EEE705FB00110A
:104AB000120204EB8104EFE70080045000810350F0
:104AC00070B5012600F580531E6302230024C360E5
:104AD0001A4B00F50055846084616B614FF6FF73DB
:104AE0000462C3614CF68063446244668466046772
:104AF000C0F88440C0F88840C0F89040C0F8A44096
:104B0000C0F8A840C0F8B040C0F8FC301F23C0F87F
:104B1000EC40C0F8F040C0F8F8301CF006FA2E6304
:104B200044600466C0F88040C0F8A040C0F8E0408F
:104B3000C0F8E840C0F8E44070BD00BF77007707D8
:104B4000034BD3F82424D3F820041040704700BF4F
:104B500000C00350064BDA6E02F03002202A06D065
:104B6000DA6E22F0300208B142F01002DA667047C5
:104B7000004000502DE9F8431E4B0546D3F8103392
:104B80004B1E0E2B0E46174690F8009044781DD908
:104B900009B34FF000082846D7B12AF005FC09EB0D
:104BA0004903072C4FF00F014FEA031315D8A40057
:104BB000114808FA04F2A14018441CF037FABEB9B3
:104BC00028468FB1BDE8F8432AF0EEBB8846E2E7FD
:104BD0001CF03BFAE3E78846E1E7083CA4000748FD
:104BE00008FA04F2A140E7E7BDE8F8431CF02DBA4B
:104BF000BDE8F88300C0035004C003500CC003504C
:104C00002DE9F0412B4B1746D3F810234A1C0646DA
:104C10000C46407804D1D3F824141CF024FA04463E
:104C2000002C2FDB072C4FF0030532782DDC4FEAE8
:104C3000840805FA08F529461F4802FA08F21CF014
:104C4000F5F9294672781D4802F0030202FA08F2CB
:104C50001CF0ECF9012317F0050F194A18BF194988
:104C600003FA04F30CBFC2F81034C1F8103417F083
:104C7000060F18BF134AC2F814340123104AA34088
:104C8000C2F820342046BDE8F081A4F108084FEABC
:104C9000880805FA08F529460B4802FA08F21CF0C4
:104CA000C5F97278294602F00302084802FA08F2B0
:104CB000CEE700BF00C0035000C4035008C4035037
:104CC00000E0035000D0035004C403500CC4035050
:104CD00038B505460C4C0140D4F8303423EA0003C3
:104CE000C4F83034D4F830341943C4F83014D4F84C
:104CF0002C340343C4F82C34012004F50054FFF78E
:104D000029FFC4F8205438BD00C00350124B70B5C1
:104D1000D3F8103306461CF0C0F90446481C15466B
:104D200003D1621C05D1204670BD631CFBD08C42B0
:104D30000ED13046032185F00102FFF71BFF012051
:104D400004F1100305FA03F19840FFF7C1FFEAE709
:104D50004FF0FF34E7E700BF00C0035003465A6935
:104D6000D205FCD5586A074A5969C0B20A40B2F563
:104D7000003F01BF5A6A4FF4005203F50053DA6353
:104D8000704700BF2000020030B51D0200F58054BE
:104D9000A5608468094CE45C4B1E5443A3EBC2033A
:104DA0002344B3FBF4F38268013B920702D5002B46
:104DB00008BF0123C3F30803836130BD4BF9020030
:104DC00008B5E023C360002302468360094983617C
:104DD000C36103621CF092F902F500531964516932
:104DE000C90504D42022DA63024ADA6308BD516A95
:104DF000F5E700BFFFFF1F000A4B1B68C3F3074323
:104E0000012B0ED1084B04205A6E4FF48023074922
:104E1000520358BF064A4B6601F51041086258BF5D
:104E2000536670470080E00F0080005000900050F3
:104E300000A000504FF48032084B5A6603F5E62379
:104E40005B691A0B027003F03F0242704FF6FF726B
:104E5000C3F3851342808380704700BF00900050E9
:104E6000014B986CD96C70470080E00F10B54FF47F
:104E70002F72002104461FF065F98023C4F88C309E
:104E8000054B04F19C00C4F88430012384F8883079
:104E9000BDE810401AF0F1BF4FF9020010B5D0F88C
:104EA000A0400A468CB91CF027FB044610B9002428
:104EB000204610BD2D2896BF064B074953F82010F9
:104EC000064A07481CF05EFCF2E7D0F8A410104632
:104ED000A047ECE70CFA020052F9020057FF02006B
:104EE0003DFB0200F8B590F88060044616B100263C
:104EF0003046F8BD1CF03AF90028F8D1012384F8B7
:104F0000803094F8883033B1D4F884101F4884F886
:104F100088601CF037FC4FF0FF37D4F8B402421C15
:104F20001FD0C4F8B47210F0FF052CD020461CF03E
:104F30001AF92946204600F0C1FB0028EDD0204692
:104F40001CF016F994F888303BB1D4F884100F485F
:104F50001CF018FC002384F88830002384F880308B
:104F6000C6E71CF0F4FB431CDDD1D4F88C30D4F838
:104F70009420013B9A4204DB054A064906481CF08E
:104F800001FC0126E9E70126C7E700BF3FFB02005D
:104F900057FF020060F902003DFB0200F8B50B78F4
:104FA0000446302B0D46164604D14B7803F0DF0340
:104FB000582B11D0284F6A1E12F8011F002934D136
:104FC00028460A2204F06EFE202C03460D4631D1FD
:104FD000B1FA81F040091AE04A1C1F4912F8013F5A
:104FE0008BB928461FF0E2F81C4B02382340032BF4
:104FF00012D10134A41084420AD1A87837288CBF7A
:105000000020012003E0CB5C13F04400E6D1F8BDA2
:10501000CCBF01200020FAE7002CB8BF0334B0EB6E
:10502000A40FD4BF01200020F1E77B5C13F0040043
:10503000C2D1ECE726B1084302D0013B61F1000583
:105040000122A240013A1A40002D08BF9A420CBF2B
:1050500001200020DBE700BFF6030300030000800F
:10506000F0B5037801467B2B17D1064602240022B7
:105070000B4F16F8015F7D2D05D10B5D6BB9D24347
:1050800002F0010008E07B5D13F0440002D0013221
:105090000134EEE7202DFBD0F0BD0020FCE700BF7F
:1050A000F603030070B506460D461FF07FF8044670
:1050B00030461CF067FB044EAC4200D370BD304656
:1050C0001CF060FB0134F7E7FA0403002DE9F84F08
:1050D000044602216048FFF7E5FF1E212068FFF724
:1050E000E1FF636858681CF04DFB5C481CF04AFB0C
:1050F00067683B7BFD2B12D8D7F808804FF0FF3450
:1051000040461FF053F80646DFF84C91DFF8A8A19F
:10511000DFF864B10C3717F8013BFF2B01D1BDE874
:10512000F88F212B14D8212B14D8DFE803F0178C2B
:105130008884807C78741313131313131313706C07
:105140006864605C58541313131313131313504CF7
:10515000FE2B34D006B10134414D02E006B10134DA
:10516000404D02214846FFF79DFF1E214846FFF7AC
:1051700099FF50461CF006FB594628461EF0FFFFDB
:105180003949002818BF294638481CF0FBFA3B78FB
:10519000202B02D12B201CF0E9FA35481CF0F2FA42
:1051A0004EB118F804301F2B05D018F804001F2842
:1051B00001D0B4424BDB29481CF0E4FAABE706B15E
:1051C00001342C4DCDE706B101342B4DC9E7002E3B
:1051D000A1D001349FE706B10134284DC1E706B1E3
:1051E0000134274DBDE706B10134264DB9E706B1BC
:1051F0000134254DB5E706B10134244DB1E706B1C0
:105200000134234DADE706B10134224DA9E706B1C3
:105210000134214DA5E706B10134204DA1E706B1C7
:1052200001341F4D9DE706B101341E4D99E706B1CB
:1052300001341D4D95E706B101341C4D91E706B1CF
:1052400001341B4D8DE706B101341A4D89E71CF07E
:105250008DFA0134A9E700BF46FB020057FF0200A8
:10526000D1FA0200CBFA020028FB02003FFB020049
:105270002CFB0200D9FA0200DFFA0200E8FA020071
:10528000EFFA0200FAFA020004FB02000EFB020031
:10529000F9FA020003FB02000DFB020016FB0200FC
:1052A0001AFB020022FB0200C5FA0200CCFA02003F
:1052B00021FB0200C4FA02002AFB02002DE9F04F94
:1052C00093B005468B460024009204931EF06EFFB7
:1052D0001C9F049B05901C6028463C600AAA09A9F3
:1052E0001CF072FA064658B90A981EF05FFF344661
:1052F000B146049B1860D5F89C300393039B1BB9FF
:10530000204613B0BDE8F08F039B9B680193002BF0
:1053100069D02E4416F8013B202B12D000260C2316
:105320007343019A02EB030AD3580293002B55D022
:10533000DDF82480C84551DB9AF808302BB1721C87
:1053400035E03B6801333B60E4E73B68D5F89420E7
:105350000299D21A049B1A6012AB03EB890353F82B
:10536000203C184606931EF0F5FE07900028E6D173
:1053700002981EF01BFFDAF804100346087BD7F8EA
:1053800000A0FE28079A16D108F1FF38C8452ED094
:105390000B680698029201931EF008FF0AF10103C0
:1053A000029A0344E95C21B13B6009F10109164608
:1053B000B5E70133F6E7D5F89420A2EB0A029A424A
:1053C000BDDC584606931EF0F1FE069B03447B2B82
:1053D0001DD958461E4A00991AF091FD2B46059A90
:1053E0002A449A422AD1039B1B68039386E7D5F887
:1053F0009420A2EB0A029A42E3DDD1F8008058F82B
:105400000C2B82B9059B3B60049B1A60E6E758466B
:10541000029A00991AF073FD58460E4A0099013419
:105420001AF06DFD8BE7584600991AF068FD584652
:10543000084A00991AF063FD0134E0E713F8011BF4
:105440000029CED14FF0200103F8011CC9E700BFAD
:105450002FFB0200FA0403002DE9F047002486B078
:105460001C60DDE90EA8064689468AF800401168EE
:10547000154888F8004017461D468DF81740FBF781
:1054800003F918B901242B6801332B600020D6F8EA
:105490009C6036B914B1012388F8003006B0BDE82D
:1054A000F087B06868B14B460021CDE902A8CDE98C
:1054B00000750DF117021BF0BCFF9DF81730002B93
:1054C000E8D13668E5E700BF34FB02002DE9F04380
:1054D00000260446ADF5457D7C22314605A802AF85
:1054E00004961EF02FFE80222046009703AB04A9ED
:1054F000FFF7E4FE01283ED104A81EF057FE0399F1
:105500003B68A0EB01080B44234428EAE8780546F1
:1055100004A80144424618461EF03BFE00F808600D
:10552000D4F89060039B3968D4F890201944B142B4
:1055300012DCD4F89410E81A0244C4F89020014414
:1055400004AAC4F89410D41825182B1B002B0DDCCA
:105550000DF5457DBDE8F083A05C1CF007F9D4F89B
:10556000903001360133C4F89030DBE714F8010BBA
:105570001CF0FCF8E9E7EBDD24AD8022314628463B
:105580001EF0E0FD44AB4FF40072314618461EF0A9
:10559000D9FD0DF1100903464A464FF00108314686
:1055A00012F8016B002E49D104A843F828101EF010
:1055B000FDFD2946334619F8016B0DF5887C5CF832
:1055C000042B824243D10133984501F8016BF2DA92
:1055D000D4F89060039BB34242DC2346354A04A9C9
:1055E00035481CF0CFF828461EF0E0FD0646039B28
:1055F0003F68F61A1F44E0191D4426EAE67204F1DA
:1056000098031744984204EB07014ED204F190032B
:1056100099424AD96A1E81190B1A002B39DD12F8FA
:10562000013F00F8013BD4F890300133C4F89030CA
:10563000D4F894300133C4F89430EDE7202E01F112
:10564000010104BF43F8281008F10108A8E70DF193
:10565000100E7244D25CB242B1D00022EA54B7E7D5
:10566000D4F890300136E05C1CF080F8D4F890302B
:105670000133C4F89030ADE7D4F89020013B0132FB
:10568000C4F89020D4F894200132C4F89420002B60
:10569000F2DC00232E44E355731B002B7FF758AF39
:1056A00015F8010B1CF062F8F6E729461EF071FDB3
:1056B0003346ECE74FF9020039FB02002DE9F843CD
:1056C000D0E9245604460F46002294F89830012B66
:1056D00007D10A2F07D1002384F898300020BDE8B5
:1056E000F88300F29F801B2F01D10223F4E70D2FD6
:1056F0000DD1012384F898300D201CF037F80A20D2
:105700001CF034F800230120C4E92433E7E74FF00C
:105710000008082F84F8988034D1454530DDB54223
:105720000FD138461CF022F820201CF01FF8013D54
:1057300038461CF01BF8013E04F80580C4E92456E5
:10574000CCE7FBDA05F1FF3938461CF00FF804EB23
:105750000903A6EB0902611918461EF0D9FC04F8EA
:1057600006800146013E48481CF00CF835464D4580
:1057700001DC4D46E2E708201BF0F8FF013DF6E7AB
:10578000ACD0DBE77F2F1CD1002EA7DDB542A5DA18
:105790006319691C21441846721B1EF0B9FC04F8F9
:1057A0000680014639481BF0EDFF0820013E1BF042
:1057B000DDFFB542F9D1D4F89430013BC4F8943000
:1057C0008CE70A2F98D0092F03D12046FFF77EFEE1
:1057D00084E7D4F88C30013BB3427FF77FAFB5420A
:1057E00004EB050805F101090CDB384688F8007068
:1057F000D4F89430C4F890900133C4F894301BF07E
:10580000B5FF6BE74146721B04EB09001EF080FCFC
:1058100040461BF0B7FF0820013E1BF0A7FFB54232
:10582000F9DDE2E7022B06D15B2F01D1032353E719
:1058300084F8982049E7032B7FF450AF413F84F868
:105840009820032F3FF64AAFDFE807F002070A1659
:10585000012120461BF03BFF40E74FF0FF31F8E706
:10586000B542BFF63BAF605D1BF080FFD4F89030CF
:105870000133C4F8903031E7002D7FF72FAF013DA1
:105880000820C4F89050BAE742FB020047FB020030
:1058900070B504460D4629F081FD1D2C064608D83A
:1058A0000C2C0AD8082C2CD013D8BB23E340DB07E0
:1058B00018D4002321242B801EE00123174AA34083
:1058C000134224D1122C26D00D2CF2D14FF4F060CB
:1058D00005E0092C18D00C2CEBD14FF4C060FEF77A
:1058E000C1F902E08020FEF7DBF94FF6FF73984222
:1058F0000CBF0E2400242880304629F04AFD2046A3
:1059000070BD4FF48060EEE74FF49060EBE700234A
:105910000F242B80F0E74FF4E060E0E70080912057
:1059200030B58BB06C466B4D0FCD0FC42B686A4AF7
:1059300023604FF60173ADF80030D2F84C3113F408
:10594000802340F0BA80D2F850218DF801309DF8C4
:1059500001306C46FF2B08BF192368465F4D8DF858
:105960000130FEF74BFA3220FEF786FA0FCD0FC456
:105970000FCD0FC495E8030084E80300564BD3F81D
:105980004C21120300F18380D3F85041E4B28DF82A
:105990001940FEF72DFA044484F3080450488DF8AA
:1059A0001840FAF761FE6846FEF786F93220FEF7E6
:1059B00069FA4C48FEF74CFB4B4C4C4829F007FD6C
:1059C0000020FEF765FAFEF7F9FA236F002023F0B6
:1059D000070343F003032367FEF71AFB236F4449D1
:1059E00023F474432367434BD3F8FC2012F08072F6
:1059F00053D1C1F880203C4BD3F8202122F0030280
:105A000042F00202C3F82021D3F8242122F0070239
:105A100042F00202C3F82421D3F8802122F00302CD
:105A200042F00102C3F88021D3F8402122F00302A2
:105A300042F00202C3F84021D3F8602122F00302B1
:105A400042F00202C3F86021D3F8402222F00302A0
:105A500042F00202C3F84022D3F8002222F00702EB
:105A600042F00202C3F80022D3F8202222F00302FF
:105A700042F00102C3F82022FEF7DCF84FF0E022EA
:105A80000020136943F0040313610BB030BD1A4BBF
:105A90001C88FF2C88BF8C2479E7D3F8FC2022F0E7
:105AA0008072C3F8FC200022C1F88020D3F8FC20CB
:105AB00042F08072C3F8FC209DE74FF07E6393F8BC
:105AC0009C2093F99C30002BFFF641AF8DF801200C
:105AD0003DE700BF4CFB02000080E00F60FB0200CE
